:100000000C9462000C948A000C948A000C948A0070
:100010000C948A000C948A000C948A000C948A0038
:100020000C948A000C948A000C948A000C948A0028
:100030000C948A000C948A000C948A000C948A0018
:100040000C94F50E0C948A000C948A000C948A008F
:100050000C948A000C948A000C948A000C948A00F8
:100060000C948A000C948A000000000025002800EF
:100070002B0000000008000201000003040700003C
:1000800000000000000000000000240027002A00FB
:10009000040404040404040402020202020203032E
:1000A0000303030301020408102040800102040836
:1000B0001020010204081020000000002300260088
:1000C0002900002311241FBECFEFD8E0DEBFCDBF33
:1000D00012E0A0E0B1E0E6EFFBE402C005900D9273
:1000E000AC30B107D9F726E0ACE0B2E001C01D9218
:1000F000A03AB207E1F710E0C2E6D0E004C02197D1
:10010000FE010E94BF25C136D107C9F70E94F51C28
:100110000C94F9250C9400003F924F925F926F92DD
:100120007F928F929F92AF92BF92CF92DF92EF9287
:10013000FF920F931F93CF93DF93CDB7DEB72A972C
:100140000FB6F894DEBF0FBECDBF80917004882338
:1001500009F49AC280913904813009F046C2C090F6
:100160003F03D12CC114D10409F43DC20E94380AC6
:100170008C0180E095E00E948D118770833009F436
:1001800042C0843009F46FC0823009F09FC028E07B
:1001900030E0AE014F5F5F4FB80181E00E94501721
:1001A000B801685F7F4F898180933B038A81809388
:1001B0003C038B8180933D038C8180933E038D8132
:1001C00090E0982F88272E81820F911D90934103F4
:1001D000809340030F8110E0102F00278885080FBF
:1001E000111D7B01E00EF11EC016D10608F063C0A0
:1001F000960145E854E081E00E9450179601201BCB
:10020000310B89015EC026E030E0AE014F5F5F4FE9
:10021000B80181E00E945017B8016A5F7F4F898161
:1002200080933B038A8180933C038B8180933D03C1
:100230008C8180933E030D8110E0102F00278E816A
:10024000080F111D7B01E00EF11EC016D10698F5B6
:10025000960145E854E081E00E945017A601401B3A
:10026000510B8A012EC022E030E0AE014F5F5F4F9C
:10027000B80181E00E945017B8016E5F7F4F8A81FC
:10028000082F10E002501109898190E0982F8827EB
:10029000080F191F7B01E00EF11EC016D10658F49D
:1002A000960145E854E081E00E945017B601601BBA
:1002B000710B8B0106C0980145E854E081E00E9473
:1002C0005017B70181E00E94720A02C000E010E0FE
:1002D00060E470E081E00E94F415012B09F483C111
:1002E00020918A0430918B04C901882701978F3FA0
:1002F000944608F042C0E6E1F6E080E04191519179
:100300004217530769F0452B59F08F5F8530B1F7DD
:100310008091820490E0019665E070E00E94A4253F
:100320008093820490E0FC01EE0FFF1FEA5EF94F1C
:10033000408151814217530711F031832083FC0122
:10034000EE0FFF1FEE0FFF1FEE5FF94F40913B03D3
:1003500050913C0360913D0370913E034083518373
:1003600062837383880F991FFC01E850FA4F8091D4
:100370004003909141039183808310918504115033
:1003800010938304412F50E066E874E085E894E020
:100390000E94D725112309F426C185E894E09093A3
:1003A0004304809342041091850410933A04809191
:1003B000860480933B04A0908804B12CBA2CAA2414
:1003C00080918704A82AB0924104A0924004C09072
:1003D0008A04D12CDC2CCC2480918904C82AD092A8
:1003E0003F04C0923E0480913E039091EB05891B2F
:1003F000898380913D039091EA05891B8A838980D6
:100400009A8090923D0480923C048114910409F4F6
:1004100050C08C149D0409F44CC0C6010E94A01069
:10042000282F30E02150310996E0929FF001939FF0
:10043000F00D1124E459F94F428153818130C9F103
:100440004115510511F440E05FEF220F331FF90110
:10045000E650FE4F808191819A012C213D21892B0C
:1004600021F4ADE1B3E0FD0106C0C9018160881649
:100470009906B9F71EC08191919182179307C9F02F
:1004800083E0E133F807B9F740E050E0CA016D912D
:100490007D914F5F5F4F672BC9F7880F991FFC0154
:1004A000E35EFC4F31832083FC01E75FFC4F9182C8
:1004B000808281E0809384041092390480916C06DC
:1004C00090916D068A159B05B9F09FEFA9169DEFD7
:1004D000B906F9F4C6018150914F8F3F9B4060F4FB
:1004E000E1E3F3E081919191C816D90629F0B3E0D8
:1004F000EB33FB07B9F779C0412F50E04650510963
:100500006BE874E085E894E00E94D7252AEF210F7C
:100510004EC0EFEFAE16BE0639F0FFEFAF16FEEF9E
:10052000BF0609F047C006C08FEF809387048EEFA7
:1005300080938804C114D10449F4C6018150914FBD
:100540008F3F9B4038F5E1E3F3E01FC08AEFE82ED0
:1005500081E0F82E80E0D7012D913D917D0101E0F1
:10056000080F232B51F08D7F41F0212F45E854E0F7
:10057000602F8FEF9FEF0E949613802F053059F761
:10058000DCCFB3E0EB33FB0781F181919191C81689
:10059000D906B9F7412F50E0465051096BE874E095
:1005A00085E894E00E94D72520913A0426502093B4
:1005B0003A041CC0AE01475F5F4FBE016F5F7F4FC3
:1005C000C5010E94B8106985613079F0212F45E896
:1005D00054E089819A810E94961321E0811101C023
:1005E00020E0219503C01092390420E021502E3FD5
:1005F00008F04AC08091840490E001972BE0289F86
:10060000F001299FF00D1124E75CFB4FC580D680D7
:1006100085E894E0909377048093760410918504A4
:1006200010937104A0908704B12CBA2CAA24809155
:100630008604A82AB0927304A092720420918804C0
:10064000209374040091890400937504812F8079AC
:10065000803151F4402F50E06AE874E085E894E07E
:100660002A870E94D7252A85E2E2F1E0812F90E0D7
:10067000419151914817590729F031E0E637F307C6
:10068000B9F702C011118BC080910701813009F0C8
:1006900084C000E010E0612C712CC12CD12C59E0F9
:1006A000852E912C5601AA0CBB1CF501EE50FD4F76
:1006B00080819181009709F444C081157FEF9707ED
:1006C00009F43FC0F601E851FD4F20812530A9F41F
:1006D000F601E653FD4F2081422F50E0DA01AE5B78
:1006E000BC4F7D01F501EC52FD4F40815181F60177
:1006F000E054FD4F008165E111C0213299F4F5010C
:10070000EC52FD4F4081518139E9E32E33E0F32E65
:1007100008E1F601E653FD4F208161E30E944D138D
:10072000082F10E00115110521F0BFEFCB1ADB0AED
:100730002BC0EFEF6E1A7E0AF4E06F16710428F4F6
:1007400025C02FEFC21AD20A1FC0F501EE50FD4F8F
:10075000808191810E94A010A6014F5F5F4F7A01B6
:10076000813089F459E0C516D10469F0A4014C190F
:100770005D09C701880F991FBC016E507D4F8051E4
:100780009D4F0E94D7256701612C712C6AE0C61627
:10079000D10408F487CF1092070180E075C31130AF
:1007A00049F4822F90E0AC014E5B5C4F7A01A501C9
:1007B00061E10AC0123061F4822F90E0BC016E5BEF
:1007C0007C4F7B01A50162E1C6010E944D1348C325
:1007D000123209F04DC08091B20390E0982F882723
:1007E0003091B103832B892B39F4822F90E0DC0107
:1007F000AE5BBC4F7D012CC0D0928104C0928004BE
:10080000B0927F04A0927E0420937D0400937C0428
:10081000013009F52223B1F030E0220F331FF90136
:10082000EE54FC4F808190E0982F8827F901EF5417
:10083000FC4F3081E12CF12C08E12FE340E050E047
:1008400062E23AC2E1E8EE2EE3E0FE2E08E120E0AB
:10085000A50162E3B9CF8DE28093080310920703EC
:100860001092060371E8E72E73E0F72E08E1F0CF4F
:10087000153029F4A2EFB2E0E0E0F0E007C0113259
:1008800009F057C0F7CF892B31F031968D919D91AA
:100890008C159D05C1F7CF01880F991FDC01AE5063
:1008A000BD4FCD92DC92DF01A851BD4F1C93DC01FE
:1008B000AC52BD4FAD92BC92DF01A653BD4F2C93FD
:1008C000BF0160547D4FFB010083011124C0113230
:1008D000C9F58091B20390E0982F88273091B10339
:1008E000832B892B09F4BFC2A2EBB3E030E08C91DB
:1008F00090E0982F8827AD0141505109FA014081BD
:10090000842B892B29F012963D3211F03F5FEFCFF7
:10091000DB013C93A8C2153049F4822F90E0FC0122
:10092000EE5BFC4F7F01A50165E14ECF113271F501
:100930009AC2173269F5002349F0322F10E0020FF6
:10094000111D19C0153049F3173211F5E3E9F2E032
:100950008DE28E0F11928E13FDCF211119C040919F
:1009600072045091730419E9E12E13E0F12E08E1AD
:1009700020E067E329CF832F90E0801791076CF781
:10098000FC01ED56FD4F10823F5FF5CF1732A9F203
:10099000309171043532F9F420917404822F90E083
:1009A000AC01455F5B4F7A01409172045091730432
:1009B0000091750465E3C6010E944D13EBE0F4E07D
:1009C00095E28DE28E0F2081211101C09083319636
:1009D0008E13F9CF45C2383051F4409172045091D2
:1009E0007304E12CF12C00E020E068E1EDCE36321A
:1009F000A9F58091B20390E0982F88272091B10348
:100A0000822B892B09F452C0E2EBF3E020E08081D5
:100A100090E0982F8827DF0111973C91832B892B39
:100A200029F032962D3211F02F5FF1CF2093000183
:100A300080917504873010F087E001C084E08093D6
:100A400075044091720450917304E0E0EE2EE1E0F1
:100A5000FE2E0091750420E066E3B6CE383231F503
:100A60008091B20390E0982F88272091B103822BC8
:100A7000892BE1F08091EC05809378048091ED055D
:100A8000809379048091EE0580937A048091EF053C
:100A900080937B04409172045091730468E7E62EC2
:100AA00064E0F62E04E020E068E38ECE832F807DA4
:100AB000803131F1832F807F803529F1803709F033
:100AC000CFC1323701F5409175044A3008F0AEC10C
:100AD0009091720480917304909342038093430336
:100AE00080917404809344034093450350E06091E7
:100AF00076047091770486E493E00E94D72596C12E
:100B0000313309F4ADC1343319F0313709F050C035
:100B100010921D0120917404822F8F7019F00FEF35
:100B200010E002C000EF10E050917504A9E1B0E0C0
:100B30004D01851A9108E0907604F090770440E02A
:100B4000C22ED12CBE2C642F70E068157905C4F438
:100B5000FB01EF57FC4F808190E0802391238C159F
:100B60009D0561F467597C4FF7018E2F8B1985170E
:100B700028F48191DB018D93BD01F7CF4F5FE3CF67
:100B8000343391F48091B20390E0982F882730910C
:100B9000B103832B892B41F0052F40E050E064E343
:100BA0008FEF9FEF0E944D1381E080931D0158C18C
:100BB000363111F150F4343191F0353109F036C14C
:100BC000E9E3F2E080E090E0A3C0323309F476C0BC
:100BD000333309F440C0373109F028C124C04091B3
:100BE000750450E0609176047091770480917404EC
:100BF00090E08E5B9C4F32C180917504823008F08A
:100C00002FC1E091740481EF8E0F803308F028C16A
:100C1000F0E0EE5BFC4FA0917604B09177049081F8
:100C20008C91892316C080917504823008F018C118
:100C3000E091740481EF8E0F803308F011C1F0E071
:100C4000EE5BFC4FA0917604B091770490818C917B
:100C5000892B808305C12091740421110AC0409121
:100C6000750450E0609176047091770489E693E012
:100C7000F5C08091B20390E0982F88273091B1039E
:100C8000832B892B09F4ECC030E0220F331FE09056
:100C90007604F0907704F901EE54FC4F808190E0E7
:100CA000982F8827F901EF54FC4F3081009175048B
:100CB00027E240E050E064E1832B87CDE4EBF3E0F2
:100CC00021E0808190E0982F8827DF0111973C91E7
:100CD000832BC816D90629F4D0920703C0920603C5
:100CE00004C02F5F32962D3261F78091800490917D
:100CF0008104009709F4B4C0E0907604F090770482
:100D000040917E0450917F040091750462E35DCDB3
:100D1000219131912C153D0511F00196F9CFFC017F
:100D2000E45FFD4F21E02083809172049091730471
:100D3000009709F06FC0E4EBF3E011E0808190E0F0
:100D4000982F8827DF0111972C91822BC816D9067E
:100D500021F01F5F32961D3289F760907604709003
:100D6000770430907504A12CB12CC12CD12CE9E072
:100D70004E2E512C9601220F331FF901EE50FD4FDC
:100D80004F01808191810097E9F08115FFEF9F0766
:100D9000C9F0F901EC52FD4F408151817301032DDF
:100DA000212F61E30E944D13882321F02FEFC21AF7
:100DB000D20A28C03FEFA31AB30A44E0A416B10434
:100DC00028F422C05FEFC51AD50A1CC0D4018D914A
:100DD0009C910E94A010F60131967F01813089F428
:100DE000F9E0CF16D10469F0A2014C195D09C701E1
:100DF000880F991FBC016E507D4F80519D4F0E94FE
:100E0000D7256701A12CB12C2AE0C216D10408F421
:100E1000B1CF26C087599C4F33E08135930700F14D
:100E200043E08038940789F080F01AC08091720402
:100E30009091730487599C4F53E08135950780F05A
:100E400063E08038960709F058F440917504442314
:100E500039F050E060917604709177040E94D725B4
:100E60008091710411C0E3E9F2E08DE28E0F1192DE
:100E70008E13FDCF21118CCD09E9E02E03E0F02E79
:100E800008E1A50161E3A0CC2A960FB6F894DEBF75
:100E90000FBECDBFDF91CF911F910F91FF90EF90CB
:100EA000DF90CF90BF90AF909F908F907F906F908A
:100EB0005F904F903F900895CF93DF93EC01898D21
:100EC0009A8D892B41F0E881F9810680F781E02D28
:100ED000CE010995F4CFDF91CF910895CF93DF93A1
:100EE0001F92CDB7DEB76983DC01ED91FC910280E2
:100EF000F381E02D41E050E0BE016F5F7F4F099527
:100F00000F90DF91CF910895FC01818D928D08950E
:100F1000FC0185899689089522EF31E0FC01318337
:100F20002083FB014189528963897489FC014283D2
:100F30005383648375830895DC01ED91FC91028CE9
:100F4000F38DE02D099480E00895CF93DF93FC01A9
:100F5000218D328D2115310519F48FEF9FEF1EC0C1
:100F6000EC014217530730F0A90184850E943F0F1E
:100F70009C010AC084854115510519F00E943F0F5C
:100F800002C080E090E09C011216130634F7898DB0
:100F90009A8D821B930B9A8F898FC901DF91CF9114
:100FA00008950F931F93CF93DF931F92CDB7DEB7B2
:100FB000FC01218D328D232B59F08C0141E050E052
:100FC000BE016F5F7F4F84850E943F0F892B19F40C
:100FD0008FEF9FEF08C0F801818D928D0197928F5E
:100FE000818F898190E00F90DF91CF911F910F91B8
:100FF0000895CF93DF93EC018C85843061F00E94DB
:101000004E11EC85F0E0EE0FFF1FED53FB4F118208
:10101000108284E08C87DF91CF9108959B0190E04E
:101020000496982F8827642F820F931F0C94B51273
:101030000F931F93CF93FB018A01DC0158961C92FA
:101040001E9257971C96CC918281811109C0838191
:10105000811106C08481811103C085818823F9F044
:1010600001151105E1F0BF016E5F7F4F8C2F90E0FD
:10107000982F882744E050E0845F9B4F0E94AF1177
:10108000412F60E170E08C2F0E940E08402F61E13B
:1010900070E08C2F0E940E0881E090E002C080E09A
:1010A00090E0CF911F910F91089590E00496982FB2
:1010B0008827860F971F0C948D11CF93FC01C48550
:1010C00060E270E08C2F0E94F41562E070E08C2FDB
:1010D0000E94550884FD10C062E070E08C2F0E94D1
:1010E000550883FFF2CF48E162E070E08C2F0E9448
:1010F0000E0880E090E008C040E162E070E08C2FD4
:101100000E940E0881E090E0CF9108950F931F9305
:10111000CF93DF93FC012485243011F080E026C0BA
:101120008B01EC0163E070E082E00E9455088823A7
:1011300051F0883141F063E070E083E00E9455088F
:10114000811104C005C082E08C8704C0883111F48D
:1011500083E0FACF8C85843009F31E870D871A8EC1
:10116000198EA80162E00E94891781E0DF91CF917A
:101170001F910F9108951F93CF93DF93182F60E273
:1011800070E00E945508C82FD0E061E270E0812F26
:101190000E945508DC2FCC279E01282BC901DF9126
:1011A000CF911F9108956F927F928F929F92AF92ED
:1011B000BF92CF92DF92EF92FF921F93CF93DF9374
:1011C0007C014B01EA01FC01A788B08C1485C12C7D
:1011D000D12C812F0E94BB083C01892B21F0812F4B
:1011E0000E94BB086C01C614D70499F7CC16DD0623
:1011F00078F4C12CD12C812F0E94BB08EC01892BE3
:1012000021F0812F0E94BB086C01CC16DD0699F7F6
:10121000209731F09E01A401B501812F0E94801614
:10122000F7018789908D8C0F9D1F908F878BCE0142
:10123000DF91CF911F91FF90EF90DF90CF90BF9003
:10124000AF909F908F907F906F9008957F928F9234
:101250009F92AF92BF92CF92DF92EF92FF920F9345
:101260001F93CF93DF93CDB7DEB7A6970FB6F89451
:10127000DEBF0FBECDBF8C01762E942E852E20E2D0
:10128000B22ECE0101967C01FC012B2D11922A95E4
:10129000E9F782EF91E09AA389A38FEF8BA38CA348
:1012A0008DA38EA3680187E4C80ED11C43E450E0EF
:1012B000BE016F5D7F4FC6010E941808019609F4B8
:1012C000BFC081E089838A8386E0A82EAB821C821E
:1012D000F80164817581868197810E94B8256D83AC
:1012E0007E838F83988789869A8680E890E09C87A2
:1012F0008B874CE150E0B701C6010E94D308F7018B
:101300002B2D11922A95E9F7480188E0880E911C4F
:10131000F401D70101900D92AA94E1F740E150E069
:10132000B701C6010E94D308F7011192BA94E9F7F8
:1013300096E0A92EB12C40E250E0B701C6010E9410
:10134000D308F1E0AF1AB108B1F783E6898392E8D8
:101350009A8393E59B838C8385E38D8381E08E83E1
:101360007F829DE3988797E099878A8786E0F401DA
:10137000DE011B9601900D928A95E1F78CE0898B36
:101380008A8B64E072E0CE0143960E94E925F80161
:101390004385BE01675E7F4FC8010E94CD13F801EF
:1013A0004485BE01655E7F4FC8010E94CD13F801E0
:1013B0004585BE01635E7F4FC8010E94CD134EE19B
:1013C00050E0B701C6010E94D308F3E07F121EC0AF
:1013D00082E3898384E08A83F80196859B839785DD
:1013E0009C8390899D8391899E8396E39F838887C0
:1013F000828D8987838D8A87848D8B87858D8C8765
:101400004CE050E0B701C6010E94D30887E389830E
:1014100086E08A8391E09B8393E09C838D838FE0B9
:101420008E838AE38F838BE388878FEF898749E0F8
:1014300050E0B701C6010E94D308C6010E945D08B2
:10144000A6960FB6F894DEBF0FBECDBFDF91CF9149
:101450001F910F91FF90EF90DF90CF90BF90AF90D2
:101460009F908F907F9008952A9A08952A980895C2
:101470001F93CF93DF93182F68E270E00E94550806
:10148000C82FD0E069E270E0812F0E945508DC2F60
:10149000CC279E01282BC901DF91CF911F91089580
:1014A0001F93CF93DF931F92CDB7DEB7FC01218D41
:1014B000328D232B81F01485812F0E94380A21E080
:1014C00030E0AE014F5F5F4FBC01812F0E9450178B
:1014D000898190E002C08FEF9FEF0F90DF91CF9155
:1014E0001F910895CF93DF93C82FD62F472F68E21F
:1014F00070E00E940E084D2F69E270E08C2FDF91A2
:10150000CF910C940E081F93CF93DF93182F66E2B0
:1015100070E00E945508C82FD0E067E270E0812F8C
:101520000E945508DC2FCC279E01282BC901DF9192
:10153000CF911F910895BF92CF92DF92EF92FF92C9
:101540000F931F93CF93DF93CDB7DEB728970FB6D6
:10155000F894DEBF0FBECDBF8C01DC01ED91FC9194
:101560000284F385E02D0995F801B484E12CF12C77
:101570008B2D0E94830A6C01892B21F08B2D0E94F8
:10158000830A7C01EC14FD0499F7EF2859F148E037
:1015900050E0BE016F5F7F4FD8011C968C910E9476
:1015A0003F0F9C0118161906DCF489819A81AB81E2
:1015B000BC81F801818B928BA38BB48B8D8190E0E1
:1015C000982F88272E81820F911D968B858B2F81D6
:1015D00030E0322F22278885280F311D328F218F4E
:1015E000C90102C080E090E028960FB6F894DEBFF3
:1015F0000FBECDBFDF91CF911F910F91FF90EF9064
:10160000DF90CF90BF9008954F925F926F927F923C
:101610008F929F92AF92BF92CF92DF92EF92FF9202
:101620000F931F93CF93DF93CDB7DEB7EE970FB62F
:10163000F894DEBF0FBECDBF5C018B014A0182EF83
:1016400091E09A8389831C861B8648EE53E060E014
:1016500070E04D875E876F87788B2CEC31E03A879E
:10166000298724E02D8B998F888F1A8E1B8E1C8ED4
:101670001D8E99AB88AB1AAA1BAA1CAA1DAA809121
:101680004E0690914F06A0915006B09151068EA340
:101690009FA3A8A7B9A78B839C83AD83BE8318861D
:1016A0001F82F801D8018D918111FDCF20E030E03B
:1016B00080E090E05AE04191442311F1843091059B
:1016C0000CF042C04E3279F42F3F310509F0E4F5B9
:1016D000A2E3B0E0AC0FBD1FA80FB91F2C93019679
:1016E00020E030E0E8CF529FB001539F700D1124ED
:1016F000242F440F330B20533109260F371FDBCF24
:101700002F3F310509F004F584309105ECF4FE011A
:10171000E80FF91F22ABD501ED91FC910288F38906
:10172000E02D82EF91E09DA38CA38AA99BA9ACA98F
:10173000BDA98EA39FA3A8A7B9A7A401BE016C5DF4
:101740007F4FC50109952EC24B815C816D817E81E1
:101750008091560690915706A0915806B09159066F
:10176000481759076A077B0709F41AC20E94E90E55
:101770006F7077277C5FCE0109960E9486088130C2
:1017800009F00BC282EF91E09DA38CA38B819C8119
:10179000AD81BE818EA39FA3A8A7B9A745E350E062
:1017A000BE016C5D7F4FCE0109960E941808892BFF
:1017B00019F400E010E0FAC00E94E90E78876F8308
:1017C00042E050E0BE01695F7F4FCE0109960E9462
:1017D000D30881E090E09DA38CA342E050E0BE01DD
:1017E0006C5D7F4FCE0109960E94D30880E091E0A6
:1017F0009DA38CA342E050E0BE016C5D7F4FCE0103
:1018000009960E94D3081DA21CA242E050E0BE012E
:101810006C5D7F4FCE0109960E94D30842E050E0F4
:10182000BE016C5D7F4FCE0109960E94D30842E055
:1018300050E0BE016C5D7F4FCE0109960E94D30837
:101840007801D7018C91882319F1F8017F018191EA
:10185000811117C06701C01AD10A1C141D04A4F419
:10186000CEAA41E050E0BE016A5C7F4FCE010996EE
:101870000E94D308A601B801CE0109960E94D308A0
:1018800003C08E3219F7E6CF87010F5F1F4FD9CF04
:101890001EAA41E050E0BE016A5C7F4FCE0109966E
:1018A0000E94D30800E011E01DA30CA342E050E029
:1018B000BE016C5D7F4FCE0109960E94D3081DA327
:1018C0000CA342E050E0BE016C5D7F4FCE01099653
:1018D0000E94D308CE0109960E945D08892B09F465
:1018E00068CF83E0E82EF12C0E94E90E2B013C0129
:1018F000CE0109960E949B0A18161906A4F00E94B0
:10190000E90EDC01CB0184199509A609B7098938CC
:101910009341A105B105C8F462E370E080E090E076
:101920000E94AF0EE5CF4B815C816D817E818A8DF7
:101930009B8DAC8DBD8D481759076A077B0741F415
:101940008E8D9F8DC59721F406C02FEF3FEF25C0E8
:101950002EEF3FEF22C08AA19BA10C970CF41AC175
:101960004CE050E0BE016C5D7F4FCE0109960E94B5
:10197000A5078EA19FA19827892798279BAF8AAF9B
:101980004F8158852CA13DA142175307C9F0CE01C4
:1019900009960E945C072CEF3FEF8901B1E0EB1A3A
:1019A000F10821F02F3F3F4F09F49ECFCE01099659
:1019B0000E94F9070130110509F4ADCEC801F2C04B
:1019C00097FFE5CF8F709270892B39F0CE01099681
:1019D0000E945C072BEF3FEFE0CF0AA51BA5102765
:1019E000012710270115110539F4CE0109960E942F
:1019F0005C072AEF3FEFD1CFC12CD12C88A599A548
:101A0000982789279827C816D90670F541E050E035
:101A1000BE016A5C7F4FCE0109960E94A5078EA980
:101A2000811117C08EA98111F1CFCE0109960E94B4
:101A3000D107CE0109960E94D107CE0109960E94D6
:101A4000D107CE0109960E94D107FFEFCF1ADF0A16
:101A5000D5CF8EA99FEF980F9EAB882319F3CE01A7
:101A600009960E94D107F5CFC12CD12C41E050E05E
:101A7000BE01645C7F4FCE0109960E94A5078CAD24
:101A8000982F907C69F4882381F08CAD9FEF980F9C
:101A90009CAF882351F0CE0109960E94D107F5CF63
:101AA000CE0109960E94D1071CAE8CAD8111DECF0C
:101AB00042E050E0BE01685C7F4FCE0109960E9473
:101AC000A50742E050E0BE016A5C7F4FCE01099657
:101AD0000E94A507CE0109960E94D107CE01099662
:101AE0000E94D107CE0109960E94D107CE01099626
:101AF0000E94D10742E050E0BE01665C7F4FCE01FC
:101B000009960E94A50788AD99AD8115914011F500
:101B10002EA93FA932272327322721303105D1F4BE
:101B20008AAD9BAD8115944039F0CE0109960E9493
:101B30005C0727EF3FEF31CF44E050E0BE016E5C21
:101B40007F4FCE0109962DAF3EAF0E94A5072DAD68
:101B50003EAD23CF612C712C8AAD9BAD9827892790
:101B600098276816790640F4CE0109960E94D1079D
:101B70008FEF681A780AF0CFAFEFCA1ADA0AC016E8
:101B8000D10609F073CFCE0109960E945C0726EFBB
:101B90003FEF03CF2DEF3FEF00CF80E090E002C09A
:101BA0008EEF9FEFEE960FB6F894DEBF0FBECDBF5F
:101BB000DF91CF911F910F91FF90EF90DF90CF9029
:101BC000BF90AF909F908F907F906F905F904F905D
:101BD00008958EBD00000DB407FEFDCF8EB50895AB
:101BE0003FB7F8948091DC049091DD04A091DE046D
:101BF000B091DF0426B5A89B05C02F3F19F00196D0
:101C0000A11DB11D3FBFBA2FA92F982F8827820F82
:101C1000911DA11DB11DBC01CD0142E0660F771FD2
:101C2000881F991F4A95D1F708950E94C52522EF74
:101C300031E0FC0131832083FB01408151816281CD
:101C40007381FC014283538364837583089590E01C
:101C5000FC01EE58FF4F3491FC01EC55FF4F2491ED
:101C6000FC01E057FF4FE491EE2309F43BC033231E
:101C700039F1333091F038F43130A9F0323001F5D8
:101C800084B58F7D12C0373091F03830A1F03430F8
:101C9000B9F4809180008F7D03C0809180008F77A0
:101CA000809380000DC084B58F7784BD09C080917A
:101CB000B0008F7703C08091B0008F7D8093B0001B
:101CC000F0E0EE0FFF1FE859FF4FA591B4918FB7D9
:101CD000F894EC91611103C020952E2301C02E2BA6
:101CE0002C938FBF0895CF93DF9390E0FC01EC55C8
:101CF000FF4F2491FC01E057FF4F8491882361F14D
:101D000090E0880F991FFC01EA57FF4FC591D491CD
:101D1000FC01E859FF4FA591B491611109C09FB72B
:101D2000F8948881209582238883EC912E230BC020
:101D3000623061F49FB7F8943881822F80958323B5
:101D40008883EC912E2B2C939FBF06C08FB7F894FD
:101D5000E8812E2B28838FBFDF91CF9108958F923A
:101D60009F92AF92BF92CF92DF92EF92FF926B0160
:101D70007C010E94F00D4B015C01C114D104E1040F
:101D8000F104F1F00E94F00DDC01CB0188199909F2
:101D9000AA09BB09883E9340A105B10570F321E073
:101DA000C21AD108E108F10888EE880E83E0981E77
:101DB000A11CB11CC114D104E104F10419F7DDCF59
:101DC000FF90EF90DF90CF90BF90AF909F908F905B
:101DD00008952FB7F8946091D8047091D904809138
:101DE000DA049091DB042FBF08951F920F920FB673
:101DF0000F9211242F933F938F939F93AF93BF9391
:101E00008091D8049091D904A091DA04B091DB04B8
:101E10003091D70423E0230F2D3720F40196A11D24
:101E2000B11D05C026E8230F0296A11DB11D209308
:101E3000D7048093D8049093D904A093DA04B09384
:101E4000DB048091DC049091DD04A091DE04B0916C
:101E5000DF040196A11DB11D8093DC049093DD0485
:101E6000A093DE04B093DF04BF91AF919F918F9157
:101E70003F912F910F900FBE0F901F901895CF920A
:101E8000DF92EF92FF920F931F93CF93C82F6B01B6
:101E90007A010E94380A8C019701A601BC018C2F9F
:101EA0000E945017B8016E0D7F1D8C2F0E94720A80
:101EB00060E470E08C2F0E94F415C701CF911F9150
:101EC0000F91FF90EF90DF90CF9008954F925F9227
:101ED0006F927F928F929F92AF92BF92CF92DF923A
:101EE000EF92FF920F931F93FB01C080D180E2809D
:101EF000F380B701A6017F77452B462B472B09F4CA
:101F00007AC0B701A6014427552766277078460195
:101F1000570188249924F0E8AF22E894B7F8811497
:101F20009104A104B10411F4AB016AC097018601C8
:101F30002F77332781149104E0E8AE06EFE7BE0661
:101F400039F4012B022B032B09F058C0AB0110C050
:101F5000AB0166277727F7E1B694A7949794879407
:101F6000FA95D1F7F401E057F109EF31F10514F0DA
:101F70005C6746C01E161F0654F1EEE7F0E0E81954
:101F8000F909E931F105F4F4680179016894E7F899
:101F90002601370104C07694679457944794EA95D4
:101FA000D2F79201EDE7F0E0E819F90904C0F694E0
:101FB000E794D794C794EA95D2F7C0FE05C02F5F87
:101FC0003F4F02C020E030E0422B532B19C0FE2FC0
:101FD000EE27FF0FFF0F7DE03695279517950795A4
:101FE0007A95D1F7402B512B4E2B5F2BD4FE08C096
:101FF0004F5F5F4F05C040E050E802C040E05EEF39
:10200000FC01408351831F910F91FF90EF90DF906F
:10201000CF90BF90AF909F908F907F906F905F9088
:102020004F9008950F931F93FB01DC018D919C91BC
:102030009C013F77232B31F4A0E0B0E0DC0199272D
:1020400088276FC09C0122273078AC0144275C7739
:1020500093704115510549F54FEF5FEF4F5F5F4FAB
:10206000880F991F92FFFACF9370A0E0B0E06DE067
:10207000880F991FAA1FBB1F6A95D1F7890120E01D
:1020800030E0980111270027802B912BA22BB32B36
:102090008A01550F220B330B40E750E060E070E0FF
:1020A000401B510B620B730B31C04115BCE75B0742
:1020B00081F4892B49F4C901A0E0B0E0DC01992743
:1020C0008827A068BF672DC080E090E0A0ECBFEF3C
:1020D00028C0A0E0B0E06DE0880F991FAA1FBB1FC9
:1020E0006A95D1F7890120E030E098011127002797
:1020F000802B912BA22BB32B452F55274695469528
:1021000060E070E040595F4F6F4F7F4F27E1440F11
:10211000551F661F771F2A95D1F7842B952BA62B69
:10212000B72B80839183A283B3831F910F9108956E
:1021300080910803882319F0815080930803089543
:102140009C01A0E8B1E0E6E7F1E090E04D915D91FF
:102150009F5F4217530738F0408151814217530760
:1021600010F4892F08953296953081F780E0089514
:10217000EF92FF920F931F93CF93DF93EC017B01BC
:102180008A010E94A010F801808390E00197FC0171
:10219000EE0FFF1FE650FE4F20813181232BB1F05F
:1021A00026E0289FF001299FF00D1124E459F94FF2
:1021B000208131812C273D274281538124233523DF
:1021C000232B21F4F701D183C08361C026E0289F2F
:1021D000F001299FF00D1124E459F94F8281938178
:1021E000009761F08C239D239C012160E7013983D6
:1021F0002883EDE1F3E020E030E008C0CE0188273D
:10220000F8CF2F5F3F4F2A30310531F04191519186
:1022100048175907B1F738C00097B9F0209131033A
:10222000309132032817390781F42AE030E0220F79
:10223000331FF901E75FFC4F80819181F7019183A2
:1022400080830E94A010E8018883A0EEB4E0E0E063
:102250002D913D91E701888199812115310531F05A
:102260002817390719F0EF5FEA3091F7F0E0EE0F29
:10227000FF1FE052FB4F208131812817390739F4C5
:10228000F7011182108203C0892B89F6DECFDF911E
:10229000CF911F910F91FF90EF900895CF93C82F8A
:1022A00060E170E00E94F4154FEF62E070E08C2F67
:1022B000CF910C940E08CF92DF92EF92FF920F9382
:1022C0001F93CF93DF93EC017A018B016C01C40E55
:1022D000D51ECC15DD05B9F0F8940E94360A8FE0C2
:1022E0000E94E90D8D2F0E94E90D8C2F0E94E90DAF
:1022F000219680E00E94E90DF80181938F010E94F0
:10230000340A7894E6CFC701DF91CF911F910F91E6
:10231000FF90EF90DF90CF9008951F93CF93DF93BE
:102320001F92CDB7DEB7182FF89499830E94360A12
:102330008FE00E94E90D9981892F0E94E90D812F7C
:102340000E94E90D80E00E94E90D89830E94340A11
:10235000789489810F90DF91CF911F910895CF924A
:10236000DF92EF92FF920F931F93CF93DF93EC01D5
:102370007A018B016C01C40ED51ECC15DD05B1F0C0
:10238000F8940E94360A80EF0E94E90D8D2F0E947A
:10239000E90D8C2F0E94E90D2196F80181918F01A2
:1023A0000E94E90D0E94340A7894E7CFC701DF91BB
:1023B000CF911F910F91FF90EF90DF90CF900895F4
:1023C000CF93DF93CDB7DEB72A970FB6F894DEBF71
:1023D0000FBECDBF89879A87E8EEF5E02381280FED
:1023E0003281390F4181508154834583368327835D
:1023F0008F839887E4E1F1E09581890F8E8398853A
:102400008481890F8D8383818C8382818B838181F9
:102410008A838081898346E050E0BE016F5F7F4FF1
:1024200089E090E00E94AF1144E050E06CEE75E06E
:102430008FE090E00E94AF1144E050E064EF75E05F
:1024400081E090E00E94AF1144E050E060EF75E061
:1024500085E090E00E94AF110E94C3172A960FB644
:10246000F894DEBF0FBECDBFDF91CF9108950F93DB
:102470001F93CF93DF93C0E0D0E081E00E94830AF6
:102480008C01892B21F081E00E94830AEC01C017A6
:10249000D10799F7C0933F03C850C73308F444C02D
:1024A00010923F0381E00E944E1163E070E081E0F2
:1024B0000E9455088111F9CF46EE50E062E081E0BC
:1024C0000E9489178091CE049091CF04A091D004EE
:1024D000B091D1040196A11DB11D8093CE049093BB
:1024E000CF04A093D004B093D104C0E08091CE0477
:1024F0009091CF04A091D004B091D10480389C4F2A
:10250000AA40B105F0F01092CE041092CF041092C0
:10251000D0041092D1040E94041680916C06909110
:102520006D060E94E0110DC081E080933904109285
:10253000CE041092CF041092D0041092D104C1E0C6
:10254000D5CF8C2FDF91CF911F910F91089580915E
:102550007004882329F0815080937004811104C095
:102560000E9437128093700408951F93CF93DF93D6
:1025700000D0CDB7DEB7182FF8946A8399830E94F4
:10258000360A80EF0E94E90D9981892F0E94E90D9A
:10259000812F0E94E90D6A81862F0E94E90D0E9419
:1025A000340A789481E00F900F90DF91CF911F91C2
:1025B0000895E0912806F0912906848181110FC0C9
:1025C000858181110CC08681978190932906809323
:1025D0002806178216821092CD041092CC04E09146
:1025E0002806F09129068481882361F08150848334
:1025F0000190F081E02D8091CD0491E0980F9093AF
:10260000CD040EC08581882379F0815085830280B6
:10261000F381E02D8091CC0491E0980F9093CC044D
:10262000E80FF11D8081089580E00895E09128066B
:10263000F091290680E0309741F025819481920F36
:10264000890F0680F781E02DF6CF08958091280646
:1026500090912906892B41F00E94161391E0811177
:1026600001C090E0892F08950895E0912806F09127
:102670002906118210821382128214821582178217
:102680001682089590932906809328061092CD040F
:102690001092CC041092CB040895AF92BF92CF92C7
:1026A000DF92EF92FF920F93CF93DF931F92CDB7FC
:1026B000DEB75C0182EDC82E84E0D82E6093D20490
:1026C0004093D3045093D4042093D5040093D604AC
:1026D0008AE896E069830E94421369816079E091FB
:1026E0002806F0912906D182C082603151F4F3822C
:1026F000E28285E0848305831782168265E0600F9D
:1027000008C01382128285E08483158217821682A4
:1027100065E0C5010F90DF91CF910F91FF90EF9091
:10272000DF90CF90BF90AF900C94791BEF92FF9207
:102730000F931F93CF93DF9300D0CDB7DEB77C010B
:102740008A0180E296E02A8369830E944213E09125
:102750002806F091290611821082138302831482C5
:102760002A812583178216826981613061F4622F84
:10277000C7010F900F90DF91CF911F910F91FF90A4
:10278000EF900C94D11780E00F900F90DF91CF91D4
:102790001F910F91FF90EF90089580E3FB018083DC
:1027A0003296842F82958F7090E1899F4019112471
:1027B0004A3014F4405D01C0495C4293482F8111B6
:1027C000F0CF08952F923F924F925F926F927F9237
:1027D0008F929F92AF92BF92DF92EF92FF920F93F0
:1027E0001F93CF93DF93CDB7DEB7E4970FB6F8947E
:1027F000DEBF0FBECDBF7C011A012B0139010E9443
:10280000E90E4B015C018701095B1F4FC8010E9463
:102810009B0A18161906A4F00E94E90EDC01CB01F0
:1028200088199909AA09BB09281639064A065B06C0
:10283000F0F062E370E080E090E00E94AF0EE6CF3F
:1028400042E250E0BE016F5F7F4FC8010E94A507C2
:102850008981823031F4F801858996898334910524
:1028600041F0D12CC8010E945C078D2D5BC18FEF18
:1028700059C16D817E818F8198850E94B8254B0159
:102880005C01F301608371838283938346E050E0AF
:10289000B701685F7F4FCE014D960E94CA25892BF4
:1028A00099F4F70180819181A281B38188169906FC
:1028B000AA06BB0648F084819581A681B781881558
:1028C0009905AA05BB0528F4C8010E945C0780E0B1
:1028D00029C189899A89AB89BC89F701868797873D
:1028E000A08BB18B8EECA82EB12CC8010E94D10711
:1028F000F1E0AF1AB108C9F7D12CC70182969AA7A7
:1029000089A7F701B696FCA7EBA708969EA78DA707
:102910003C974F018E9698AB8FA73897FAABE9ABEF
:102920001701F6E12F0E311CCA979CAB8BABF80157
:10293000818D928D181619060CF094CFC8010E9453
:10294000D1078333910509F4C7C0FCF481309105A8
:10295000C9F11CF4892B59F3D9C083309105D1F109
:10296000069709F0D3C0C8010E94D1075C0144E07A
:1029700050E06BA97CA9C8010E94A507412C512CED
:10298000BB24F4E0AF1AB10840C08A33910509F4C2
:1029900077C03CF48533910569F0C69709F440C0CF
:1029A000B5C08B33910509F481C08F3F910509F4BF
:1029B000BECFACC0C8010E94D107C8010E94D10798
:1029C000D82EB5CFC8010E94D10744E050E069A9D4
:1029D0007AA936C0C8010E94D1075C0144E050E0EA
:1029E000B101C8010E94A507412C512CBB2494E0E1
:1029F000A91AB1084A145B040CF099CFC8010E94CF
:102A0000D107EFEF4E1A5E0AF5CF4A145B040CF0C3
:102A10008ECFC8010E94D1078FEF481A580AF5CF10
:102A2000C8010E94D107B82EF701828D938DA48D25
:102A3000B58D892B8A2B8B2B39F444E050E0B401FF
:102A4000C8010E94A50773CFEFA5F8A94080518067
:102A500062807380B401CE0183960E94170E8DA10F
:102A60009EA1AFA1B8A584159505A605B70529F3C4
:102A7000BB2009F45CCFC8010E94D107BA94F8CFFB
:102A8000C8010E94D10744E050E06BA57CA5C801B5
:102A90000E94A507F70166A177A180A591A50E94D4
:102AA000B82566A377A380A791A741CFC8010E944C
:102AB000D10744E050E06DA57EA5C8010E94A5079E
:102AC000F70162A573A584A595A50E94B82562A704
:102AD00073A784A795A72BCFC8010E94D10744E014
:102AE00050E069A57AA5C8010E94A507F70162A177
:102AF00073A184A195A10E94B82562A373A384A3A6
:102B000095A366A777A780AB91AB11CFC8010E94B0
:102B1000D107B82EBB2009F40ACFC8010E94D10703
:102B2000BA94F8CFE4960FB6F894DEBF0FBECDBFCF
:102B3000DF91CF911F910F91FF90EF90DF90BF90A9
:102B4000AF909F908F907F906F905F904F903F904D
:102B50002F9008958F929F92AF92BF92CF92DF9263
:102B6000EF92FF920F931F93CF93DF937C01EB01C2
:102B70006C0182E0C80ED11C4701E5E08E0E911C6D
:102B800000E010E0F60141916F0150E060E070E07C
:102B90002AE0CE010E941D1B5C01E881F9810190B1
:102BA000F081E02D6EE2CE0109958A0D9B1D080F84
:102BB000191FC814D90431F7F701458150E060E0CE
:102BC00070E02AE0CE010E941D1B800F911FDF9153
:102BD000CF911F910F91FF90EF90DF90CF90BF901A
:102BE000AF909F908F900895CF93C82F462F61E0AC
:102BF00070E00E940E0861E070E08C2F0E94550882
:102C00008111F9CFCF910895CF936CE271E080E00C
:102C100090E00E94AF0ECFB7F894809165068111C5
:102C200027C0EAE9F0E08491EEEAF0E09491E82F21
:102C3000F0E0EE0FFF1FEA57FF4FA591B491EC9122
:102C4000E92321F461E08AE00E94270E61E08AE036
:102C50000E94730E8CB580618CBD8CB580648CBD78
:102C600061E08DE00E94730E61E08BE00E94730EC4
:102C7000809165068F5F80936506CFBF229A60E8DA
:102C800080E090E00E94B51265E58BE190E00E9443
:102C9000B51265E58AE190E00E94B51280E090E40B
:102CA00090932B0680932A0680E090E6909333065B
:102CB0008093320680E098E490932D0680932C0652
:102CC00080E098E6909335068093340680E090E5A6
:102CD00090932F0680932E0680E090E7909337061E
:102CE0008093360680E098E5909331068093300615
:102CF00080E098E79093390680933806CF91089545
:102D00005F926F927F928F929F92AF92BF92CF927B
:102D1000DF92EF92FF920F931F93CF93DF93582E82
:102D20007B015A01E90164E270E00E945508082F16
:102D300010E065E270E0852D0E945508102F0027F5
:102D4000082B6801CE0CDF1C360147E07422052DEC
:102D500010E0000F111FF801E65DF94FE080F180EF
:102D6000E60CF71C209749F4C5010E9442130E940B
:102D70001613C82FD0E0C50102C080E090E09E018C
:102D8000260D371D2130384008F44EC060E078E051
:102D90004B0186189708892B11F0570120C0A40118
:102DA000B501C7010E94AF11AE0148195909B5011B
:102DB000680D791DF801E65DF94F808191813BC076
:102DC0000E942613882389F00E94D91235019FEFB3
:102DD000691A790A682FC5010E94B51253018A2D1C
:102DE0008E1990E08815990558F3F801E65DF94FC2
:102DF000B080EB2CF1808E01081919098E2D8B19EA
:102E000090E08017910778F50E942613882359F1E6
:102E10000E94D91247014FEF841A940A682FC70104
:102E20000E94B5127401EACF892B11F0870115C0F9
:102E3000AE01B501C7010E94AF1115C00E94261353
:102E4000882389F00E94D91258019FEFA91AB90A64
:102E5000682FC8010E94B5128501802F8E1990E05D
:102E60008C179D0758F3CC0DDD1D4D2F64E270E0EB
:102E7000852D0E940E084C2F65E270E0852DDF91B4
:102E8000CF911F910F91FF90EF90DF90CF90BF9067
:102E9000AF909F908F907F906F905F900C940E08F2
:102EA000CF92DF92EF92FF920F931F93CF93DF9316
:102EB000FB01BA01F770C82FD0E0CC0FDD1FCE5C4C
:102EC000D94F888199818E0F9F1FAF01420F531FE9
:102ED0004130584098F089016B0120E038E07901D9
:102EE000EE1AFF0AA7010E945B11A8014E195F09A3
:102EF000B6016E0D7F1D8881998101C0A901DF9106
:102F0000CF911F910F91FF90EF90DF90CF900C9495
:102F10005B11FF920F931F93CF93DF931F92CDB757
:102F2000DEB7F82E8A0169830E944E116981462F0F
:102F300060E070E08F2D0E940E080115110551F41C
:102F400000916306109164060F5F1F4F1093640693
:102F500000936306412F64E070E08F2D0E940E08FD
:102F6000402F65E070E08F2D0E940E0861E070E058
:102F70008F2D0E94F41581E00F90DF91CF911F916A
:102F80000F91FF90089563E070E081E00E94550882
:102F9000811106C046EE50E062E081E00C94891792
:102FA00008950F931F93CF93DF9300D000D000D0EC
:102FB000CDB7DEB706EE10E08F3F2EEF920731F46B
:102FC0008FEF89838A838B838C8332C09C013D7F02
:102FD0002F3F3D4FA9F39C0121503B4A2E3F3041EA
:102FE00078F39C012227232B91F0E6E1F6E020E024
:102FF00030E0419151914817590709F485C02F5F7E
:103000003F4F25303105A9F70E943513B9C09E8383
:103010008D839091EB05890F8C839E818091EA05C9
:10302000890F8B838091E9058A838091E8058983E4
:103030006F5F609362068AE596E00E944213E0911A
:103040002806F091290682E696E091838083138218
:10305000128281E08483158280E296E097838683E2
:103060008AE596E00E9442130E94161399819111FD
:103070000AC09A81911107C09B81911104C09C8163
:10308000992309F476C00115110509F472C088234B
:1030900009F46FC044E050E0BE016F5F7F4F8CE0E9
:1030A00095E00E94AF11412F60E170E081E00E9445
:1030B0000E08402F61E170E081E00E940E0820E0E0
:1030C00030E04AE556E060E070E081E00E94801662
:1030D00060E270E081E00E94F4151FEF82E095E06D
:1030E0000E948D1184FF27C063E070E081E00E94A0
:1030F0005508813001F160E182E095E00E94B5124F
:103100000E94351381E03DC0F901EE0FFF1FEE0F65
:10311000FF1FEE5FF94F80819181A281B381898386
:103120009A83AB83BC83220F331FF901E850FA4F17
:10313000008111817DCF82E095E00E948D1183FF97
:1031400006C068E182E095E00E94B51212C011232A
:1031500081F063E070E081E00E945508813009F061
:10316000BDCF115061E070E080E090E00E94AF0EB2
:10317000B5CF0E94351381E00E944E110E94C31703
:1031800080E026960FB6F894DEBF0FBECDBFDF916C
:10319000CF911F910F9108958F929F92AF92BF92FE
:1031A000CF92DF92EF92FF92CF93DF93A0914106EF
:1031B000882311F03A2F01C030E08091420690E060
:1031C000880F991F88549F4FC0904706D09048069B
:1031D000E0904906F0904A0640E050E0BA01FC0158
:1031E000C591D49128812A2323130FC04A015B0182
:1031F0002FEF821A920AA20AB20A4C155D056E05DB
:103200007F0538F4B501A401EACF342F252FCB0177
:1032100004C030E020E080E090E0632F722FDF9167
:10322000CF91FF90EF90DF90CF90BF90AF909F90A5
:103230008F900895CF92DF92EF92FF920F931F939A
:10324000CF93DF936C017A018B01C0E0D0E0CE1503
:10325000DF0589F0D8016D918D01D601ED91FC91CA
:103260000190F081E02DC6010995892B11F47E01B2
:1032700002C02196ECCFC701DF91CF911F910F9132
:10328000FF90EF90DF90CF9008952F923F924F9252
:103290005F926F927F928F929F92AF92BF92CF92E6
:1032A000DF92EF92FF920F931F93CF93DF93CDB7EF
:1032B000DEB729970FB6F894DEBF0FBECDBF082F3B
:1032C00010E0980127593C4F7901F9018081811163
:1032D00006C0F801E659FC4F90819923B9F0980196
:1032E00026593C4F38872F8390E0F9012081AC01AB
:1032F000522B9A0121153E4F59F4F801E756FC4F25
:103300001082F801E656FC4F8EEF808380E085C086
:10331000F7012181922B9E838D83BE016F5F7F4FCA
:10332000CE0105960E94121089809A80AB80BC80E5
:10333000980127563C4F6901F901818190E0982F4F
:1033400088272081822B9E838D83BE016F5F7F4FF4
:10335000CE0105960E94121049805A806B807C80B5
:10336000F701F081F987980126563C4F1901F901C0
:10337000808190E0982F8827F6012081822BEF81B1
:10338000F8854081F9852F2F30E0342B2817390735
:1033900019F081159E4F89F1A3019201C501B40175
:1033A0000E9419254B015C0120E030E0A9010E9438
:1033B0008625181624F0B7FAB094B7F8B0942FE821
:1033C00032EC45E75CE3C301B2010E94F8232B0114
:1033D0003C0120E030E0A9010E948625181624F067
:1033E00077FA709477F87094A3019201C501B40143
:1033F0000E94862518160CF089CF2985F6012083B6
:10340000EF81F8858081F1018083F7011082EF81DF
:10341000F885108281E08093070129960FB6F89411
:10342000DEBF0FBECDBFDF91CF911F910F91FF90F7
:10343000EF90DF90CF90BF90AF909F908F907F9054
:103440006F905F904F903F902F900895CF92DF92B2
:10345000EF92FF920F931F93CF93DF93CDB7DEB719
:10346000C054D1400FB6F894DEBF0FBECDBF0E944E
:10347000E90E0091430610914406209145063091D3
:1034800046066B017C01C01AD10AE20AF30A40ED3C
:10349000C41647E0D406E104F10418F480914B0609
:1034A000BCC0609343067093440680934506909396
:1034B000460610923E0610923D0610923C0610926F
:1034C0003B0610923A0661E080913F060E94270E6B
:1034D0006AEF70E080E090E00E94AF0E61E08091C2
:1034E0003F060E94730E60E080913F060E94270E07
:1034F00064E170E080E090E00E94AF0EF89461E03B
:1035000080913F060E94270E8BE990E00197F1F72A
:1035100062E080913F060E94730E83E290E0019783
:10352000F1F780E00E94CC18672B682B692B21F4FF
:1035300010924B0678943EC081E00E94CC18672B15
:10354000682B692BA9F38E010F5F1F4F6E018FEB64
:10355000C81A8EEFD80A780180E00E94CC18F701D3
:10356000608371838283938381E00E94CC18F7018A
:103570006483758386839783F8E0EF0EF11CEC1467
:10358000FD0451F7789420E030E0F801408151814A
:1035900062817381C480D580E680F7804115510532
:1035A0006105710529F0C114D104E104F10421F48D
:1035B00010924B0680E031C0F90183E0F595E79564
:1035C0008A95E1F7E65CF94F8081880F4C155D051F
:1035D0006E057F0508F4816080832F5F3F4F085F91
:1035E0001F4F2832310589F620913E0630E0409188
:1035F0003A0680913B0690E0840F911D40913C0675
:10360000840F911D40913D06840F911D9927281725
:10361000390771F681E080934B06C05CDE4F0FB630
:10362000F894DEBF0FBECDBFDF91CF911F910F91F8
:10363000FF90EF90DF90CF9008954F925F926F923E
:103640007F92EF92FF920F931F93CF93DF93CDB7AB
:10365000DEB7A1970FB6F894DEBF0FBECDBF7C01D9
:10366000FA01CB0119A2223008F42AE08E010F5D85
:103670001F4F422E512C612C712CBF01A3019201CE
:103680000E94E824F901CA01015011096A3014F4BA
:10369000605D01C0695CD8016C93232B242B252B22
:1036A00061F70115110591F0F80101900020E9F78B
:1036B0003197AF01401B510BD701ED91FC91028076
:1036C000F381E02DB801C701099502C080E090E0C8
:1036D000A1960FB6F894DEBF0FBECDBFDF91CF919C
:1036E0001F910F91FF90EF907F906F905F904F90A0
:1036F00008952F923F924F925F926F927F928F9296
:103700009F92AF92BF92CF92DF92EF92FF920F9370
:103710001F93CF93DF9300D000D0CDB7DEB78C01DD
:10372000262F6F3208F08CC081153FEF930709F404
:1037300087C09D7F8F3F9D4F09F085C0212EFAEFF6
:10374000CF2EF1E0DF2EACE6EA2EA6E0FA2E612CB9
:10375000712CB8E9AB2EB6E0BB2E86E0582E560E83
:1037600092E9892E96E0992E27E1322E36E0432EFB
:1037700080911D01813031F46CE271E080E090E0D5
:103780000E94AF0EF601819191916F0193012F5F1D
:103790003F4F3901892B09F447C080918A069091E7
:1037A0008B06909399068093980680918C06909151
:1037B0008D0690939B0680939A0680918E06809347
:1037C0009C0680918F0680939D0680919006909133
:1037D000910690939F0680939E0650929206309297
:1037E00093060093940620929506F70190818181BB
:1037F000909396068093970680E296E00E9442138B
:10380000E0912806F091290691828082138212822B
:1038100044821582B782A682F1E06F16710421F40A
:10382000652DC8010E94D11726E0E20EF11C35E09B
:103830006316710409F09CCF8AE896E00E94421357
:103840000E943513BAC0C8018150914F8F3F9B40F1
:1038500008F06EC0612E8AEFC82E81E0D82E40E0BD
:1038600050E098E9A92E96E0B92E36E0532E560E78
:1038700062E9862E66E0962E77E1472E77247A94C9
:10388000E6E03E2EF601819191916F019A012F5F42
:103890003F4F7901892B09F445C080918A069091A8
:1038A0008B06909399068093980680918C06909150
:1038B0008D0690939B0680939A0680918E06809346
:1038C0009C0680918F0680939D0680919006909132
:1038D000910690939F0680939E0650929206409286
:1038E00093067092940670929506009396066092E5
:1038F000970680E296E00E944213E0912806F0913C
:103900002906918280821382128234821582B782C4
:10391000A68231E0E316F10429F4652D8FEF9FEFC5
:103920000E94D117A7014530510509F0ABCF84CFD4
:10393000AE014D5F5F4FBE016F5F7F4FC8012C83AB
:103940000E94B8102C8166E0620F6093920687E1B6
:103950008093930600939406109395068B8190E0D4
:10396000019716E0189FF001199FF00D1124E459FA
:10397000F94F90818181909396068093970680E21B
:1039800096E06C830E944213E0912806F09129068C
:1039900082E996E0918380831382128214831582D8
:1039A0008AE896E0978386838B816C81813029F445
:1039B00089819A810E94D11701C080E00F900F90F9
:1039C0000F900F90DF91CF911F910F91FF90EF908B
:1039D000DF90CF90BF90AF909F908F907F906F902F
:1039E0005F904F903F902F900895CF93DF93CDB786
:1039F000DEB763970FB6F894DEBF0FBECDBF7894E5
:103A000084B5826084BD84B5816084BD85B58260E3
:103A100085BD85B5816085BD80916E008160809394
:103A20006E001092810080918100826080938100FD
:103A3000809181008160809381008091800081600D
:103A4000809380008091B10084608093B100809168
:103A5000B00081608093B00080917A008460809390
:103A60007A0080917A00826080937A0080917A0057
:103A7000816080937A0080917A00806880937A00D8
:103A80001092C100A8E0B5E0E5E2F5E08DE18E0F0F
:103A900011921D928E13FCCFE2E4F3E0119224E028
:103AA000E933F207D9F7E2EFF2E044ED52E02AEC15
:103AB00032E080EC92E008EE12E011921192DA010D
:103AC0001D921D92AD01D9011D929D01DC011D9237
:103AD000CD01D8011D928D01B3E0E630FB0769F7F7
:103AE000E9E3F2E02CE032E08EEA95E063E972E08F
:103AF00011921192D9011D929D01DC011D92CD01FF
:103B0000DB011D92BD01B2E0E339FB0789F7A4EFA9
:103B1000B4E0E2E0F6E084E18E0F11921D928E1384
:103B2000FCCF8091A50581112AC010928D051092BD
:103B30008C0588EE93E0A0E0B0E080938E05909332
:103B40008F05A0939005B09391058CEC91E0909334
:103B50008B0580938A0584E08093960582EF91E03F
:103B600090939A058093990510929B0510929C055D
:103B700010929D0510929E0581E08093A50583E437
:103B800095E090935306809352060E94041646E0F7
:103B900050E064E171E089E090E00E94AF1182EFB3
:103BA00091E09A8389831B821C821D821E8244E0DD
:103BB00050E0BE016D5F7F4F8FE090E00E94AF113B
:103BC000E0905206F0905306F70112A213A214A23D
:103BD00015A216A217A210A611A612A613A614A625
:103BE00015A616AA17AA10AE11AE80E69AEEA0E0AE
:103BF000B0E082AF93AFA4AFB5AF1701FEE32F0ED5
:103C0000311C80EA9FE0A0E0B0E0F1018083918365
:103C1000A283B383D701189686E0FD01282F119265
:103C20002A95E9F79701225F3F4F94E1F90111923C
:103C30009A95E9F7E4E1F1E001900D928A95E1F7B8
:103C40004701F6E48F0E911CD4011C920E94892337
:103C50002FEC37E040E050E00E94B624DC01CB01BD
:103C60000196A11DB11DF70184839583A683B783B7
:103C700080839183A283B3835701F7E4AF0EB11C15
:103C8000C5010E94F90764E470E0C5010E9486083E
:103C9000882309F423C20E94E90E2B013C01C12CA8
:103CA000D12C10E002E0D4018C91833009F4FDC0E6
:103CB000811121C0F70184819581A681B781019688
:103CC000A11DB11D84839583A683B7830E94E90E4D
:103CD000641975098609970928EE33E040E050E041
:103CE0000E94E824A90161E0C7010E94260981E041
:103CF000D4018C93BDC0843001F5F7018481958196
:103D0000A681B7810196A11DB11D84839583A683E9
:103D1000B7830E94E90E641975098609970928EE90
:103D200033E040E050E00E94E824A90163E0C701CD
:103D30000E942609D4010C939BC0813061F5F101EA
:103D400040815181628173819E012F5F3F4FC70186
:103D50000E94E213182F823009F08AC089819A816B
:103D6000AB81BC81F70184839583A683B7830E94CE
:103D7000E90E641975098609970928EE33E040E0D9
:103D800050E00E94E824A90163E0C7010E942609CF
:103D9000D4011C9372C0823009F06AC0F1014081E5
:103DA0005181628173819E012F5F3F4FC7010E9445
:103DB000E213182F853009F056C0E3E0D401EC93EC
:103DC000F70182A193A1A4A1B5A1892B8A2B8B2BEA
:103DD00041F424E833E040E050E022A333A344A3BD
:103DE00055A3F70186A197A1A0A5B1A5892B8A2B80
:103DF0008B2B61F482A193A1A4A1B5A1B695A7953F
:103E00009795879586A397A3A0A7B1A7D7019A9660
:103E10004D915D916D917C919D9796968D919D911F
:103E20000D90BC91A02D452B462B472B59F4AC018E
:103E3000BD01440F551F661F771FF70142A753A707
:103E400064A775A7F70186A797A7A0ABB1AB82A51A
:103E500093A5A4A5B5A582AB93ABA4ABB5ABCC247D
:103E6000C394D12C0AC0863019F4D4011C9205C029
:103E70001F3F19F4F401108210E0F1E0CF16D104D5
:103E800009F411CF0E94E90EDC01CB0184199509D8
:103E9000A609B709F70122AD33AD44AD55AD2817DA
:103EA00039074A075B0708F0FECEC5010E94F907F3
:103EB000F70184819581A681B7810196A11DB11D6D
:103EC00084839583A683B783CA94CD2809F006C15D
:103ED00060915206709153066A5E7F4FCE01019643
:103EE0000E94170E60915206709153066E5E7F4FCE
:103EF000CE0107960E94170E6091520670915306EC
:103F0000625F7F4FCE010D960E94170E7E012FE05B
:103F1000E20EF11C00E111E0AE01475F5F4FDE01F0
:103F2000139688E0C82E81E0D82E2CE031E0B8014D
:103F300084E0F70191917F01FB019193BF01FA01A8
:103F40009191AF01F90191939F019D91F601919398
:103F50006F01815071F7EA88F12C10921301C701AB
:103F60000E94A010813049F090914205911176C0D5
:103F70004CE656E0EBE3F4E01FC0E8EEF5E094E039
:103F80009E0FD8012D918D0121939E13FACFA0EFA2
:103F9000B5E0ECE0F1E09F012C5F91919D932E1331
:103FA000FCCFA4EFB5E0E8E0F1E09F012C5F919138
:103FB0009D932E13FCCFD8CFDA0111961C921E923E
:103FC00013961C921E92129715961C921E9214978D
:103FD0009F0122503109D9011C922F5F3F4FD90117
:103FE0001C92108214821382168215821086178208
:103FF0004A5F5F4F3B96B4E0E237FB07E9F6EDE13D
:10400000F3E029E033E040EE54E011921192D9013F
:104010001D921D929D01DA011D921D92AD01B3E02A
:10402000E133FB0791F710923203109231031092A3
:10403000340310923303109236031092350310921A
:1040400038031092370310923A03109239038B8B86
:104050000E94041691E0909342058B89C82ED12CC2
:10406000E1E0CE1AD10896E09C9D80019D9D100D47
:1040700011240459194FD801ED92FC92813039F482
:10408000C7010E94E011F8011382128207C080E08C
:104090009FEFD80113969C938E93129786E08C9D88
:1040A000F0018D9DF00D1124E459F94F1582148211
:1040B0006091520670915306625E7F4FCE01019669
:1040C0000E94170E8B819C81AD81BE8180934E062C
:1040D00090934F06A0935006B093510682EF91E063
:1040E0009A8389831B821C821D821E8244E050E0D9
:1040F000BE016D5F7F4F8FE090E00E945B118E816B
:104100008093AD058093B1031092B20362E0809179
:104110003F060E94730E80E398EFAFEFBFEF8093EE
:10412000430690934406A0934506B093460683E564
:10413000809381039FEF90938203109269038EEF27
:1041400080936A031092990380939A0322E5209347
:1041500083039093840310926B0380936C031092FB
:104160009B0380939C0378EEA72E73E0B72EEFE6B7
:104170008E2E912CF3ED6F2E712C11E033243A9496
:104180000E94E90EC090E405D090E505E090E605B8
:10419000F090E705DC01CB018C199D09AE09BF0940
:1041A0000B97A105B10508F424C10E94E90E6093A4
:1041B000E4057093E5058093E6059093E70580910B
:1041C000E2059091E3050196B5010E9490257C01DE
:1041D0009093E3058093E20580910B04811102C066
:1041E00030920B040E94A7120E948C00C70163E06A
:1041F00070E00E949025892B51F480910B0481116D
:1042000002C030920B040E94A7120E948C00C701CA
:10421000B4010E949025892B09F083C080911A0176
:10422000E82FF0E0E55FFB4F9081911102C0B5E20D
:10423000B083823020F08091DB058111B7C12090DE
:104240001A01ECE2E21508F46AC0E22DF0E09F01E9
:10425000220F331FD901AE54BC4F8C9190E0982FA0
:104260008827D901AF54BC4F4C91842B009709F497
:1042700056C01092DB05AF01455F5B4F6A01D90163
:10428000A75CBD4F8D939C93DF01A255BA4F2C9133
:10429000222311F0DA013C929F012D563D4F290156
:1042A000E45FFD4F20812223A1F0D6018C91811182
:1042B00002C082E004C08F3A20F4805BD6018C9368
:1042C00002C0D6013C92D6018C91D2018C9310820F
:1042D00022C0F201208121111BC0D6012C912D306A
:1042E000A0F0E12CF12C08E127E540E050E065E08A
:1042F0000E944D13882339F0F60180818C50808311
:10430000D2013C9208C025E204C0D6011C9203C031
:104310002150F2012083239420921A0102C01093AD
:104320001A018091E2059091E305B3010E94902566
:10433000892B09F033C130910803332309F42EC1CE
:1043400020911C01822F90E0880F991FFC01EE54F0
:10435000FC4F4081FC01EF54FC4F808190911B0188
:10436000992341F0915090931B013D3281F090E0F0
:10437000942B1DC02F5F20931C01109207031092F5
:1043800006030E949810F0E2F0931B0107C11093FE
:104390001C0110920703109206030E94981080914E
:1043A000B40390E0982F88272091B303822B0097C5
:1043B00091F020910603309107038217930709F4C7
:1043C000F8C0E12CF12C08E12FE340E050E062E27C
:1043D0000E944D13E3C080910803882319F00E94C6
:1043E0009810F9CF10931C01109207031092060346
:1043F000D5C00E94E90EC090DE05D090DF05E090A8
:10440000E005F090E105DC01CB018C199D09AE09B6
:10441000BF0981319742A105B10508F4BFC00E94D0
:10442000E90E6093DE057093DF058093E0059093BD
:10443000E1058091DC059091DD050196B5010E94B2
:104440009025082F8093DC059093DD0580E00E9485
:10445000451982E00E94451900FDA0C00E94261A5D
:10446000882399F1809140068B3039F170F18551A4
:10447000823058F560913A0670E080E090E00E944A
:10448000972320E030E040E853E40E94F8236B01DA
:104490007C0160913B0670E080E090E00E949923EF
:1044A0009B01AC01C701B6010E941A252DEC3CEC22
:1044B0004CEC5DE30E94F8230CC060913A0670E07A
:1044C00080E090E00E94972304C060E070E080EC00
:1044D0009FE76F83788789879A870E94261A8823A7
:1044E00009F440C0809140068B3029F0D8F1855105
:1044F000823058F037C060913C0670E080E090E078
:104500000E9497236B017C0133C000913C06602F11
:104510006F7770E080E090E00E94992320E030E027
:1045200040E853E40E94F8236B017C0160913D0652
:1045300070E080E090E00E9499239B01AC01C701EC
:10454000B6010E941A252DEC3CEC4CEC5DE30E9478
:10455000F8236B017C0107FF0BC0F7FAF094F7F822
:10456000F09406C0C12CD12C80ECE82E8FE7F82EF9
:10457000C982DA82EB82FC826F81788589859A858F
:104580009B01AC010E948B25882359F1A70196015C
:10459000C701B6010E948B25882319F140E050E045
:1045A000452B09F4EDCD0E940000E7CD10931A01D0
:1045B00046CE80911C018D3220F48F5F80931C01C8
:1045C0000DC080910803882319F00E949810F9CF3C
:1045D00010931C0110920703109206030E9498107A
:1045E000DDCFBE01695F7F4F89E693E00E94660FD1
:1045F000BE016F5F7F4F8BE693E00E94660FCECFC8
:10460000E6E6F6E082EF91E09183808312821382E6
:1046100014821582E4E5F6E091838083128213828E
:1046200014821582ECE4F6E0918380831282138277
:1046300014821582AAE3B6E082E015968C93159752
:1046400086E116968C931697E6EAF0E0E4911796C9
:10465000EC931797E2E9F0E0E4911896EC93189741
:1046600040E85EE360E070E01D964D935D936D93CE
:104670007C93509708958F929F92AF92BF92CF9262
:10468000DF92EF92FF92CF93DF93EC016881798103
:104690008A819B81611571058105910521F464E290
:1046A00079ED8BE597E02DE133EF41E050E00E949A
:1046B000B62449015A019B01AC01A7EAB1E40E946A
:1046C000D5246B017C01ACEEB4EFA50194010E94EE
:1046D000E324DC01CB018C0D9D1DAE1DBF1DB7FF7A
:1046E00003C00197A109B04888839983AA83BB833B
:1046F000BC01CD019F77DF91CF91FF90EF90DF90CC
:10470000CF90BF90AF909F908F9008950E943B23D1
:1047100008958EE191E00E943B23089560931E016D
:1047200070931F0180932001909321010895E894D4
:1047300009C097FB3EF490958095709561957F4FE9
:104740008F4F9F4F9923A9F0F92F96E9BB27939597
:10475000F695879577956795B795F111F8CFFAF4A7
:10476000BB0F11F460FF1BC06F5F7F4F8F4F9F4FD8
:1047700016C0882311F096E911C0772321F09EE836
:10478000872F762F05C0662371F096E8862F70E09C
:1047900060E02AF09A95660F771F881FDAF7880F76
:1047A0009695879597F90895990F0008550FAA0BCC
:1047B000E0E8FEEF16161706E807F907C0F0121634
:1047C0001306E407F50798F0621B730B840B950B37
:1047D00039F40A2661F0232B242B252B21F408958C
:1047E0000A2609F4A140A6958FEF811D811D089529
:1047F0000E940B240C947C240E946E2438F00E94AA
:10480000752420F0952311F00C9465240C946B24EE
:1048100011240C94B0240E948D2470F3959FC1F351
:10482000950F50E0551F629FF001729FBB27F00D5E
:10483000B11D639FAA27F00DB11DAA1F649F6627B3
:10484000B00DA11D661F829F2227B00DA11D621F02
:10485000739FB00DA11D621F839FA00D611D221FBC
:10486000749F3327A00D611D231F849F600D211DA0
:10487000822F762F6A2F11249F5750409AF0F1F023
:1048800088234AF0EE0FFF1FBB1F661F771F881F8C
:1048900091505040A9F79E3F510580F00C9465243B
:1048A0000C94B0245F3FE4F3983ED4F3869577955B
:1048B0006795B795F795E7959F5FC1F7FE2B880F32
:1048C000911D9695879597F9089597F99F6780E8C8
:1048D00070E060E008959FEF80EC089500240A9452
:1048E0001616170618060906089500240A941216CB
:1048F0001306140605060895092E0394000C11F4FE
:10490000882352F0BB0F40F4BF2B11F460FF04C0AA
:104910006F5F7F4F8F4F9F4F089557FD9058440F03
:10492000551F59F05F3F71F04795880F97FB991F0E
:1049300061F09F3F79F087950895121613061406CB
:10494000551FF2CF4695F1DF08C016161706180658
:10495000991FF1CF86957105610508940895E89433
:10496000BB2766277727CB0197F90895052E97FB7C
:104970001EF400940E94CD2457FD07D00E94E82425
:1049800007FC03D04EF40C94CD24509540953095FF
:1049900021953F4F4F4F5F4F0895909580957095AB
:1049A00061957F4F8F4F9F4F08950E940A25A59FC5
:1049B000900DB49F900DA49F800D911D112408951A
:1049C000B7FF0C94D5240E94D524821B930B089525
:1049D000A1E21A2EAA1BBB1BFD010DC0AA1FBB1F03
:1049E000EE1FFF1FA217B307E407F50720F0A21B75
:1049F000B30BE40BF50B661F771F881F991F1A94E2
:104A000069F760957095809590959B01AC01BD010B
:104A1000CF010895A29FB001B39FC001A39F700D65
:104A2000811D1124911DB29F700D811D1124911DB6
:104A300008955058BB27AA270E9431250C947C2446
:104A40000E946E2438F00E94752420F039F49F3FB4
:104A500019F426F40C946B240EF4E095E7FB0C9407
:104A60006524E92F0E948D2458F3BA176207730753
:104A70008407950720F079F4A6F50C94AF240EF482
:104A8000E0950B2EBA2FA02D0B01B90190010C015E
:104A9000CA01A0011124FF27591B99F0593F50F476
:104AA000503E68F11A16F040A22F232F342F4427CE
:104AB000585FF3CF469537952795A795F0405395C6
:104AC000C9F77EF41F16BA0B620B730B840BBAF096
:104AD0009150A1F0FF0FBB1F661F771F881FC2F701
:104AE0000EC0BA0F621F731F841F48F48795779515
:104AF0006795B795F7959E3F08F0B0CF9395880FCF
:104B000008F09927EE0F9795879508950E94D42372
:104B100008F48FEF08950E94D423880B990B089511
:104B2000AA1BBB1B51E107C0AA1FBB1FA617B707D3
:104B300010F0A61BB70B881F991F5A95A9F78095EF
:104B40009095BC01CD01089597FB072E16F40094B3
:104B500007D077FD09D00E94902507FC05D03EF4D0
:104B6000909581959F4F0895709561957F4F089519
:104B70006927962769277827872778270895EE0FD2
:104B8000FF1F0590F491E02D099481E090E0F894E6
:104B90000C94F925FB01DC0104C08D910190801972
:104BA00021F441505040C8F7881B990B08956817AD
:104BB000790768F4FB01DC01E40FF51FA40FB51FB2
:104BC00002C002900E9241505040D8F708950C94C4
:104BD000F025FB01DC0101900D920020E1F7089522
:104BE000FB01DC0102C001900D9241505040D8F70A
:064BF0000895F894FFCFC8
:104BF600002D180A273F5701C0A80101FFFFFF003B
:104C0600C0A801001AA6496B00010120010101009C
:104C1600000001001100020012000800180009003F
:104C26001900050015001300140016001700830074
:104C36008400850021003100220032003300340058
:104C460025003500260036002700370028003800EA
:104C5600290039002A003A002B002C002D002E00D6
:104C66002F00710072000000006500AB00BC00CE92
:104C7600FF64FFAAFFBBFFCCFFDF00000000150E9C
:104C8600150E150E150E150E150E150EA307150E7F
:104C9600150E150E150E150E150E150E150E150EF6
:104CA60000000000150E1A19150E150E150E150E1C
:104CB60000000000150E1A19000000006E07D30848
:104CC6008407D107500A5C078608A307F907180866
:104CD600040B5D089B0AA5079C078C078807000044
:104CE6000000AA1500000000150E010000000000DB
:0C4CF6000000000057495A6E6574000071
:00000001FF
